{
  "contractName": "MyCasino",
  "abi": [
    {
      "inputs": [
        {
          "internalType": "uint256",
          "name": "_minBet",
          "type": "uint256"
        }
      ],
      "payable": false,
      "stateMutability": "nonpayable",
      "type": "constructor"
    },
    {
      "anonymous": false,
      "inputs": [
        {
          "indexed": false,
          "internalType": "uint256",
          "name": "number",
          "type": "uint256"
        }
      ],
      "name": "NumberGenerated",
      "type": "event"
    },
    {
      "anonymous": false,
      "inputs": [],
      "name": "rewardGenerated",
      "type": "event"
    },
    {
      "payable": true,
      "stateMutability": "payable",
      "type": "fallback"
    },
    {
      "constant": true,
      "inputs": [],
      "name": "maxBets",
      "outputs": [
        {
          "internalType": "uint256",
          "name": "",
          "type": "uint256"
        }
      ],
      "payable": false,
      "stateMutability": "view",
      "type": "function"
    },
    {
      "constant": true,
      "inputs": [],
      "name": "minimumBet",
      "outputs": [
        {
          "internalType": "uint256",
          "name": "",
          "type": "uint256"
        }
      ],
      "payable": false,
      "stateMutability": "view",
      "type": "function"
    },
    {
      "constant": true,
      "inputs": [],
      "name": "numberOfBets",
      "outputs": [
        {
          "internalType": "uint256",
          "name": "",
          "type": "uint256"
        }
      ],
      "payable": false,
      "stateMutability": "view",
      "type": "function"
    },
    {
      "constant": true,
      "inputs": [],
      "name": "owner",
      "outputs": [
        {
          "internalType": "address payable",
          "name": "",
          "type": "address"
        }
      ],
      "payable": false,
      "stateMutability": "view",
      "type": "function"
    },
    {
      "constant": true,
      "inputs": [
        {
          "internalType": "address",
          "name": "",
          "type": "address"
        }
      ],
      "name": "playerChoice",
      "outputs": [
        {
          "internalType": "uint256",
          "name": "betAmount",
          "type": "uint256"
        },
        {
          "internalType": "uint256",
          "name": "numberChosen",
          "type": "uint256"
        }
      ],
      "payable": false,
      "stateMutability": "view",
      "type": "function"
    },
    {
      "constant": true,
      "inputs": [
        {
          "internalType": "uint256",
          "name": "",
          "type": "uint256"
        }
      ],
      "name": "players",
      "outputs": [
        {
          "internalType": "address payable",
          "name": "",
          "type": "address"
        }
      ],
      "payable": false,
      "stateMutability": "view",
      "type": "function"
    },
    {
      "constant": true,
      "inputs": [],
      "name": "totalBetAmount",
      "outputs": [
        {
          "internalType": "uint256",
          "name": "",
          "type": "uint256"
        }
      ],
      "payable": false,
      "stateMutability": "view",
      "type": "function"
    },
    {
      "constant": false,
      "inputs": [],
      "name": "kill",
      "outputs": [],
      "payable": false,
      "stateMutability": "nonpayable",
      "type": "function"
    },
    {
      "constant": false,
      "inputs": [],
      "name": "checkTotalbets",
      "outputs": [
        {
          "internalType": "bool",
          "name": "",
          "type": "bool"
        }
      ],
      "payable": false,
      "stateMutability": "nonpayable",
      "type": "function"
    },
    {
      "constant": false,
      "inputs": [
        {
          "internalType": "uint256",
          "name": "_betNumber",
          "type": "uint256"
        },
        {
          "internalType": "uint256",
          "name": "bet_price",
          "type": "uint256"
        }
      ],
      "name": "placeBet",
      "outputs": [],
      "payable": true,
      "stateMutability": "payable",
      "type": "function"
    },
    {
      "constant": false,
      "inputs": [],
      "name": "generateNumber",
      "outputs": [],
      "payable": false,
      "stateMutability": "nonpayable",
      "type": "function"
    },
    {
      "constant": false,
      "inputs": [
        {
          "internalType": "uint256",
          "name": "winner_number",
          "type": "uint256"
        }
      ],
      "name": "awardPrize",
      "outputs": [],
      "payable": true,
      "stateMutability": "payable",
      "type": "function"
    }
  ],
  "bytecode": "0x6080604052606460055534801561001557600080fd5b50604051610b2f380380610b2f8339818101604052602081101561003857600080fd5b8101908080519060200190929190505050336000806101000a81548173ffffffffffffffffffffffffffffffffffffffff021916908373ffffffffffffffffffffffffffffffffffffffff1602179055506000811461009957806002819055505b50610a86806100a96000396000f3fe6080604052600436106100a75760003560e01c8063a61d0aed11610064578063a61d0aed146101bc578063c38a8afd146101e7578063c98e8a0a14610212578063d95579381461027e578063f12a7096146102ac578063f71d96cb146102db576100a7565b8063145b0563146100a95780632ca8c6d3146100c057806341c0e1b5146100eb5780634afe62b514610102578063613f45941461013a5780638da5cb5b14610165575b005b3480156100b557600080fd5b506100be610356565b005b3480156100cc57600080fd5b506100d56103d9565b6040518082815260200191505060405180910390f35b3480156100f757600080fd5b506101006103df565b005b6101386004803603604081101561011857600080fd5b810190808035906020019092919080359060200190929190505050610470565b005b34801561014657600080fd5b5061014f610667565b6040518082815260200191505060405180910390f35b34801561017157600080fd5b5061017a61066d565b604051808273ffffffffffffffffffffffffffffffffffffffff1673ffffffffffffffffffffffffffffffffffffffff16815260200191505060405180910390f35b3480156101c857600080fd5b506101d1610692565b6040518082815260200191505060405180910390f35b3480156101f357600080fd5b506101fc610698565b6040518082815260200191505060405180910390f35b34801561021e57600080fd5b506102616004803603602081101561023557600080fd5b81019080803573ffffffffffffffffffffffffffffffffffffffff16906020019092919050505061069e565b604051808381526020018281526020019250505060405180910390f35b6102aa6004803603602081101561029457600080fd5b81019080803590602001909291905050506106c2565b005b3480156102b857600080fd5b506102c161092f565b604051808215151515815260200191505060405180910390f35b3480156102e757600080fd5b50610314600480360360208110156102fe57600080fd5b810190808035906020019092919050505061095e565b604051808273ffffffffffffffffffffffffffffffffffffffff1673ffffffffffffffffffffffffffffffffffffffff16815260200191505060405180910390f35b6000600a424460405160200180838152602001828152602001925050506040516020818303038152906040528051906020012060001c8161039357fe5b0690507f645c265791918947597f85b236234d06987ae8864af96aa3cc55dee951a0fbe6816040518082815260200191505060405180910390a16103d6816106c2565b50565b60045481565b6000809054906101000a900473ffffffffffffffffffffffffffffffffffffffff1673ffffffffffffffffffffffffffffffffffffffff163373ffffffffffffffffffffffffffffffffffffffff16141561046e576000809054906101000a900473ffffffffffffffffffffffffffffffffffffffff1673ffffffffffffffffffffffffffffffffffffffff16ff5b565b61047861092f565b1561065a576001821015801561048f5750600a8211155b6104e4576040517f08c379a0000000000000000000000000000000000000000000000000000000008152600401808060200182810382526025815260200180610a2d6025913960400191505060405180910390fd5b60025481101561053f576040517f08c379a0000000000000000000000000000000000000000000000000000000008152600401808060200182810382526029815260200180610a046029913960400191505060405180910390fd5b80600660003373ffffffffffffffffffffffffffffffffffffffff1673ffffffffffffffffffffffffffffffffffffffff1681526020019081526020016000206000018190555081600660003373ffffffffffffffffffffffffffffffffffffffff1673ffffffffffffffffffffffffffffffffffffffff1681526020019081526020016000206001018190555060046000815480929190600101919050555060013390806001815401808255809150509060018203906000526020600020016000909192909190916101000a81548173ffffffffffffffffffffffffffffffffffffffff021916908373ffffffffffffffffffffffffffffffffffffffff1602179055505080600360008282540192505081905550610663565b610662610356565b5b5050565b60035481565b6000809054906101000a900473ffffffffffffffffffffffffffffffffffffffff1681565b60055481565b60025481565b60066020528060005260406000206000915090508060000154908060010154905082565b6106ca61099a565b6000809050600080600090505b60018054905081101561081457600181815481106106f157fe5b9060005260206000200160009054906101000a900473ffffffffffffffffffffffffffffffffffffffff16915084600660008473ffffffffffffffffffffffffffffffffffffffff1673ffffffffffffffffffffffffffffffffffffffff1681526020019081526020016000206001015414156107b5578184846014811061077557fe5b602002019073ffffffffffffffffffffffffffffffffffffffff16908173ffffffffffffffffffffffffffffffffffffffff168152505082806001019350505b600660008373ffffffffffffffffffffffffffffffffffffffff1673ffffffffffffffffffffffffffffffffffffffff1681526020019081526020016000206000808201600090556001820160009055505080806001019150506106d7565b506001600061082391906109bd565b600060146003548161083157fe5b04905060008090505b8381101561091757600073ffffffffffffffffffffffffffffffffffffffff1685826014811061086657fe5b602002015173ffffffffffffffffffffffffffffffffffffffff16146108de5784816014811061089257fe5b602002015173ffffffffffffffffffffffffffffffffffffffff166108fc839081150290604051600060405180830381858888f193505050501580156108dc573d6000803e3d6000fd5b505b7f9f2787d00232f7896baa4a7772dab7457d04139adc83557df84ce5a15bbc0ed560405160405180910390a1808060010191505061083a565b50600060038190555060006004819055505050505050565b6000600554600454108015610948575060055460045414155b15610956576001905061095b565b600090505b90565b6001818154811061096b57fe5b906000526020600020016000915054906101000a900473ffffffffffffffffffffffffffffffffffffffff1681565b604051806102800160405280601490602082028038833980820191505090505090565b50805460008255906000526020600020908101906109db91906109de565b50565b610a0091905b808211156109fc5760008160009055506001016109e4565b5090565b9056fe4265742076616c7565206973206c657373207468616e204d696e696d756d206265742076616c75652e4e756d6265722073656c6563746564206973206e6f7420696e2072616e676520312d31302ea265627a7a72315820845baf3dab81dc8726319783121c1fd79914394300e9359ceb994bc3b451276e64736f6c63430005100032",
  "source": "//SPDX-License-Identifier: UNLICENSED\r\npragma solidity >=0.5.0;\r\n\r\ncontract MyCasino {\r\n    \r\n    //OWNER OF THE ACCOUNT\r\n    address payable public owner;   \r\n    \r\n    \r\n    constructor(uint _minBet) public {\r\n        owner = msg.sender;     //USER THAT CREATED THIS CONTRACT IS THE OWNER\r\n        if(_minBet != 0)\r\n            minimumBet = _minBet;   //MINIMUM BET VALUE\r\n    }\r\n    \r\n    \r\n    //ARRAY FOR ALL THE PLAYERS\r\n    address payable[]  public players;\r\n    \r\n    //MINIMUM PRICE OF BET\r\n    uint public minimumBet; \r\n    \r\n    //TOTAL ETHER COLLECTED\r\n    uint public totalBetAmount;\r\n    \r\n    //NUMBER OF BETS PLACED\r\n    uint256 public numberOfBets ;\r\n    \r\n    //MAXIMUM NUMBER OF BETS ALLOWED\r\n    //A NEW ROUND WILL TAKE PLACE AFTER 10 BETS\r\n    uint256 public maxBets = 100 ;     \r\n    \r\n   \r\n    \r\n    //SO THAT ETHER DOES NOT GET LOST\r\n      function()external payable { }\r\n    \r\n    //ONLY THE OWNER CAN KILL THE CONTRACT \r\n    //THE REMAINING ETHER WOULD BE SENT TO THE OWNER\r\n    function kill() external {      \r\n        if(msg.sender == owner)\r\n        {\r\n            selfdestruct(owner);\r\n        }\r\n    }\r\n    \r\n    struct Player {\r\n        uint betAmount;\r\n        uint256 numberChosen;\r\n    }\r\n    \r\n    //TO MAP THE ADDRESS WITH PLAYER DETAILS\r\n    mapping (address => Player) public playerChoice;\r\n    \r\n    //THIS EVENT INDICATES THAT A RANDOM NUMBER IS GENERATED\r\n    event NumberGenerated(uint number);\r\n    \r\n    //THIS EVENT INDICATES THAT USER HAS BEEN REWARDED\r\n    event rewardGenerated();\r\n    \r\n    \r\n    function checkTotalbets() public returns(bool){\r\n        if( (numberOfBets < maxBets) && (numberOfBets != maxBets))\r\n            return true;\r\n        else\r\n            {   \r\n                return false;\r\n            }\r\n    }\r\n    \r\n    //TO PLACE THE BET\r\n    function placeBet(uint256 _betNumber, uint bet_price) public payable { //playerExists(msg.sender)\r\n        \r\n            //require(checkTotalbets());\r\n                //require(checkTotalbets(),\"Total bets completed\");\r\n                if( checkTotalbets())\r\n                {\r\n                    require(_betNumber >=1 && _betNumber<=10,\"Number selected is not in range 1-10.\");\r\n                    require(bet_price >= minimumBet,\"Bet value is less than Minimum bet value.\");\r\n                    \r\n                    playerChoice[msg.sender].betAmount = bet_price;\r\n                    playerChoice[msg.sender].numberChosen = _betNumber;\r\n                    \r\n                    numberOfBets++;     // increase the number of bets \r\n                    players.push(msg.sender);\r\n                    totalBetAmount += bet_price;\r\n                }\r\n                else  generateNumber();\r\n\r\n        \r\n    }\r\n    \r\n    //GENERATE A RANDOM NUMBER\r\n    function generateNumber() public{\r\n        uint256 win_number = uint(uint256(keccak256(abi.encodePacked(block.timestamp,block.difficulty))) % 10);\r\n        emit NumberGenerated(win_number);\r\n        awardPrize(win_number);\r\n       // awardPrize(win_number);\r\n    } \r\n    \r\n    //TO DISTRIBUTE PRIZES\r\n    function awardPrize(uint winner_number) public  payable {\r\n        address payable[20] memory winners;\r\n        uint count=0;\r\n        address payable playerAddress;\r\n        \r\n        \r\n        for(uint i=0; i<players.length; i++){\r\n            \r\n            playerAddress = players[i];\r\n            if(playerChoice[playerAddress].numberChosen == winner_number)\r\n            {   \r\n                winners[count] = playerAddress;\r\n                count++;\r\n            }\r\n            \r\n            delete playerChoice[playerAddress]; //delete the player from the mapping\r\n        }\r\n        \r\n       delete players;        //*******clear players array\r\n        \r\n        //DISTRIBUTE ETHER AMONG PLAYERS        \r\n        uint finalAmount = totalBetAmount/ winners.length;\r\n        for(uint i=0; i<count;i++)\r\n        {\r\n            if(winners[i] != address(0)) // Check that the address in this fixed array is not empty\r\n            winners[i].transfer(finalAmount);\r\n            emit rewardGenerated();\r\n        }\r\n\r\n        totalBetAmount = 0;\r\n        numberOfBets = 0;\r\n    }\r\n    \r\n    \r\n}",
  "sourcePath": "C:/Users/shres/Documents/MyCasino final/contracts/MyCasino.sol",
  "compiler": {
    "name": "solc",
    "version": "0.5.16+commit.9c3226ce.Emscripten.clang"
  },
  "schemaVersion": "3.3.2",
  "updatedAt": "2020-12-11T16:04:51.703Z",
  "networkType": "ethereum",
  "devdoc": {
    "methods": {}
  },
  "userdoc": {
    "methods": {}
  }
}